:1000000071C000008AC0000088C0000086C00000E7
:1000100084C0000082C0000080C000007EC00000DC
:100020007CC000007AC0000078C00000DEC2000082
:1000300074C0000072C0000070C000006EC00000FC
:100040006CC000006AC0000068C0000066C000000C
:1000500064C0000062C0000060C0000023C1000056
:10006000F9C000005AC0000058C0000056C000008F
:1000700054C0000020035000610063006B00650065
:10008000740046006F007200770061007200640027
:100090006500720000000E036A00770061007400C2
:1000A000740065000000040309040902270001012F
:1000B00000C0320904000003FF00000007058102B0
:1000C0000800000705820240000007050302400007
:1000D0000012011001FF00000800F0010000010102
:1000E0000200010011241FBECFEFD2E0DEBFCDBF62
:1000F00011E0A0E0B1E0EAE7FAE002C005900D925D
:10010000A230B107D9F712E0A2E0B1E001C01D9220
:10011000A331B107E1F76BD1AEC472CF9BB180952B
:10012000906389238BB908954FB7F8949091C900D3
:1001300093FF0DC028EE33E09091C80095FF03C0F7
:100140009093C80004C021503109B1F7F9CF8093D2
:10015000CE008091C90088608093C9004FBF089588
:10016000CF93DF9384B7877F84BF88E10FB6F8947D
:1001700080936000109260000FBE579A5F9A90E0E3
:1001800080E80FB6F89480936100909361000FBEF1
:100190008AB180638AB98BB180638BB917D2E9ECDD
:1001A000F0E01082AAECB0E01C92C8ECD0E018821B
:1001B0001092CB001092CD0080E18093CC0082E0C1
:1001C00088838EE08C9380E980835F985F9ADF91CB
:1001D000CF91089580E3A2CF80E1A0CFCF9342E0FA
:1001E00061E881E03ED1C82F42E361E882E039D185
:1001F000C82342E360E883E034D1C82311F080E2F1
:1002000001C080E18BDFC11109C086E48DDF81E48C
:100210008BDF89E489DF8CE4CF9186CFCF9108957D
:100220009FB7F8948091C90083FD0DC080910501AE
:10023000E82FEF77F0E0EA57FE4F20812093CE00C1
:100240008F5F809305018091C90088628093C90007
:100250009FBF08951F920F920FB60F9211248F9394
:100260009F93EF93FF938091050190910401981360
:1002700005C08091C9001092C9000BC0E82FEF772C
:10028000F0E0EA57FE4F90819093CE008F5F80930D
:100290000501FF91EF919F918F910F900FBE0F90ED
:1002A0001F9018951F920F920FB60F9211242F9343
:1002B0008F939F93EF93FF939091CE0080910602CE
:1002C000E82FEF77F0E0EA5FFE4F90838F5F809337
:1002D000060290E020910201821B9109803891056D
:1002E0002CF0809103018F5F80930301FF91EF91C8
:1002F0009F918F912F910F900FBE0F901F90189587
:1003000080910A02843009F071C082E08093E90094
:100310008091EE0087FF25C08091E80080FF21C01A
:100320008091E80085FD14C01CC0E92FEF77F0E054
:10033000EA5FFE4F20812093F1009F5F90930201BE
:10034000815039F48091E8008E778093E80009C0ED
:1003500080E490910201209106022913E6CF8034B7
:1003600089F783E08093E9008091EE0087FF21C048
:100370008091E80082FF1DC08091E80085FF19C0D0
:100380008091F2000EC0909104012091F100E92FBC
:10039000EF77F0E0EA57FE4F20839F5F90930401D0
:1003A00081508111F0CF8091E8008B778093E80035
:1003B00037DF81E08093E9008091EE0087FF16C06F
:1003C0008091E80082FF12C08091E80085FF0EC096
:1003D0008FB7F894909103019093F100109203016C
:1003E0008FBF8091E8008E778093E8000895B8DE93
:1003F00080E194DE78942DD383DFFDCF292F33273E
:100400002230310539F02330310549F021303105F2
:10041000D9F01FC087E290E02AEA30E01EC0992799
:100420008130910541F08230910541F0892B89F4AA
:10043000E6EAF0E005C0E6E9F0E002C0E4E7F0E05B
:10044000849190E09F0109C082E190E021ED30E0CD
:1004500004C080E090E020E030E0FA0131832083A6
:100460000895982F2CC09093E900981739F0709157
:10047000EC002091ED005091F00003C0242F762F66
:1004800050E021FD02C09F5F1AC03091EB003E7F1B
:100490003093EB003091ED003D7F3093ED003091D3
:1004A000EB0031603093EB007093EC002093ED0093
:1004B0005093F0002091EE0027FDE5CF06C0953067
:1004C00090F28093E90081E0089580E008958091A2
:1004D0000B0287FD05C08091E80080FF0EC012C0AE
:1004E0008091E80082FD05C080910A028111F8CF59
:1004F00008958091E8008B7708C080910A028111ED
:10050000EACF08958091E8008E778093E8000895FF
:10051000CF93DF9300D0CDB7DEB761D063D08091A9
:10052000D8008F778093D8008091D800806880931E
:10053000D8008091D8008F7D8093D80084E089BD59
:1005400086E089BD09B400FEFDCF10920A02109228
:10055000070210920802AE014F5F5F4F60E080E03B
:1005600091E04CDF892B31F0E981FA813796E491F3
:10057000E09300012091000130E088E090E040E04D
:1005800003C04F5F880F991F82179307D0F34295DE
:10059000407F426060E080E064DF8091E1008E7F18
:1005A0008093E1008091E20081608093E20080917D
:1005B000E20088608093E2008091E0008E7F80936B
:1005C000E0000F900F90DF91CF910895E3E6F0E007
:1005D00080818E7F808381E08093090299CF109281
:1005E000E20008951092E10008951F920F920FB655
:1005F0000F9211242F933F934F935F936F937F93A9
:100600008F939F93AF93BF93EF93FF938091E100FC
:1006100082FF0AC08091E20082FF06C08091E10063
:100620008B7F8093E10014D28091E10080FF17C09E
:100630008091E20080FF13C08091E2008E7F809362
:10064000E2008091E20080618093E2008091D80016
:1006500080628093D80019BC10920A02BDDD80919F
:10066000E10084FF2DC08091E20084FF29C084E076
:1006700089BD86E089BD09B400FEFDCF8091D80018
:100680008F7D8093D8008091E1008F7E8093E10080
:100690008091E2008F7E8093E2008091E200816091
:1006A0008093E20080910702811104C08091E300F1
:1006B00087FF02C084E001C081E080930A028ADDE6
:1006C0008091E10083FF31C08091E20083FF2DC063
:1006D0008091E100877F8093E10082E080930A02AD
:1006E000109207028091E1008E7F8093E10080915B
:1006F000E2008E7F8093E2008091E200806180932F
:10070000E2002091000130E088E090E040E003C08A
:100710004F5F880F991F82179307D0F34295407F50
:10072000426060E080E09DDE93D1FF91EF91BF9148
:10073000AF919F918F917F916F915F914F913F9179
:100740002F910F900FBE0F901F90189520911102BE
:10075000309112022617370748F06115710539F4F8
:100760002091E8002E772093E80001C0B901FC0138
:1007700040E039C080910A02882309F448C08530DE
:1007800009F447C08091E80083FD3FC08091E800F4
:1007900082FD35C08091E80080FF25C02091F200E5
:1007A00030E02E1B3F0B06C084918093F100319600
:1007B00061507109C9018E0F9F1F6115710531F0DC
:1007C0004091000150E08417950770F320910001DB
:1007D00030E041E08217930709F040E08091E800A3
:1007E0008E778093E8006115710521F64111C2CF23
:1007F00006C080910A02882351F0853051F0809123
:10080000E80082FFF6CF80E0089581E0089582E05D
:10081000089583E00895EF92FF920F931F93CF9373
:10082000DF9300D0CDB7DEB7EBE0F2E08091F100CE
:10083000819382E0E331F807C9F70AD18091E8009B
:1008400083FFEFC080910B0290910C02953009F468
:1008500072C038F4913089F170F0933009F0E1C042
:100860002CC0983009F4AFC0993009F4BEC096305E
:1008700009F0D7C088C0803821F0823809F0D1C093
:1008800003C0909108020FC080910F029091100256
:100890008F7099278093E9009091EB0095FB992741
:1008A00090F91092E9008091E800877F8093E8003A
:1008B0009093F1001092F10091C0882319F08230DA
:1008C00009F0AFC08F71823009F0ABC080910D028A
:1008D00081112BC080910F02909110028F70992787
:1008E000009709F49EC08093E9002091EB0020FF5F
:1008F0001CC020910C02233021F48091EB00806217
:1009000012C09091EB0090619093EB0021E030E0F9
:1009100001C0220F8A95EAF72093EA001092EA00BC
:100920008091EB0088608093EB001092E900809149
:10093000E800877F56C0811174C0E0900D02F090EE
:100940000E02E894E7F8FF240E2D1FB7F89480916B
:10095000E800877F8093E800BADD8091E80080FF9F
:10096000FCCF8091E30080788E298093E30080683B
:100970008093E300002311F083E001C082E08093C4
:100980000A021FBF4EC08058823008F04AC0AE0134
:100990004F5F5F4F60910F0280910D0290910E02A8
:1009A0002DDD009709F43DC02091E800277F2093BA
:1009B000E800BC0189819A81C9DE8091E8008B77CB
:1009C0008093E8002EC0803861F58091E800877F31
:1009D0008093E800809107028093F1008091E80005
:1009E0008E778093E80073DD1CC081111AC090914E
:1009F0000D029230B0F48091E800877F8093E80088
:100A00009093070264DD80910702811104C08091F8
:100A1000E30087FF02C084E001C081E080930A0206
:100A2000DDDB8091E80083FF0AC08091EB008062EB
:100A30008093EB008091E800877F8093E8000F901F
:100A40000F90DF91CF911F910F91FF90EF9008953C
:100A50000895CF9380910A02882359F0C091E9004C
:100A6000CF701092E9008091E80083FDD4DEC0933E
:0A0A7000E900CF910895F894FFCF3C
:020A7A00080072
:00000001FF
